:020000040000FA
:0400000073EF02F0A8
:08000800056ED8CF06F0E0CF31
:1000100007F00001E9CF0DF0EACF08F0E1CF09F0D9
:10002000E2CF0AF0D9CF0BF0DACF0CF0F3CF14F017
:10003000F4CF15F0FACF16F000C00FF001C010F0A9
:1000400002C011F003C012F004C013F09DA02CEF09
:1000500000F09EB08DEF00F0F2A832EF00F0F2B2A7
:100060006FEF00F09DAA38EF00F09EBA87EF00F026
:100070000FC000F010C001F011C002F012C003F078
:1000800013C004F00E8E0DC0E9FF08C0EAFF09C0DE
:10009000E1FF0AC0E2FF0BC0D9FF0CC0DAFF14C0B9
:1000A000F3FF15C0F4FF16C0FAFF055007C0E0FFCC
:1000B00006C0D8FF1000010EEA6EE96AEF500EE0AC
:1000C000030E016E006A002EFED7012EFBD73C0EF8
:1000D000006E002EFED700D0EF2EF2D7000C0A0ED5
:1000E0000101006F0001E7DF938081A001D0B92BEF
:1000F000F29238EF00F09EAAFED7ABCFBFF0AECFA2
:1001000001F0BFA302D0AB98AB8888EF00F0F3D723
:1001100001C000F19E9A38EF00F0BA2BBB2BD8B487
:10012000BC2BBC51000807E2FF0A03E1BB512B08BE
:1001300002E2010EBE6FBA51090803E29290897083
:10014000BA6B0B0ECF6EDC0ECE6E0B0ECF6EDC0ECE
:10015000CE6E9E9038EF00F0BA6BA50ECD6E0B0EF2
:10016000CF6EDC0ECE6E9D80C00EF212ACEF03F0AF
:100170009D8AC00EF212B0EF03F0B96BF288C00E88
:10018000F212F18CB1EF03F0EA6A190EE96E000E7B
:10019000EF1008E0EF509EA8FED7AD6EE92AD8B464
:1001A000EA2AF5D70D0E9EA8FED7AD6E0A0E9EA8C0
:1001B000FED7AD6E020EC26F186AF2BE188EF29EA6
:1001C000FA0E0101006F000176DF18BEF28EC22F19
:1001D000F3D73AEF01F0EA6A280EE96E000EEF104D
:1001E00008E0EF509EA8FED7AD6EE92AD8B4EA2AFF
:1001F000F5D70D0E9EA8FED7AD6E0A0E9EA8FED7AF
:10020000AD6E1C0EC26F186AF2BE188EF29EFA0E08
:100210000101006F00014FDF18BEF28EC22FF3D72D
:100220003BEF01F0EA6A420EE96E000EEF1008E0C3
:10023000EF509EA8FED7AD6EE92AD8B4EA2AF5D7CA
:100240000D0E9EA8FED7AD6E0A0E9EA8FED7AD6E0F
:10025000020EC26F186AF2BE188EF29EFA0E0101EB
:10026000006F000128DF18BEF28EC22FF3D73CEFDB
:1002700001F08AD7B0D7D6D7B2EF03F0EA6A510EB1
:10028000E96E000EEF1008E0EF509EA8FED7AD6EAD
:10029000E92AD8B4EA2AF5D70D0E9EA8FED7AD6E8E
:1002A0000A0E9EA8FED7AD6E140EC26F186AF2BE7B
:1002B000188EF29EFA0E0101006F0001FCDE18BEDE
:1002C000F28EC22FF3D7B5EF03F0EA6A7D0EE96E26
:1002D000000EEF1008E0EF509EA8FED7AD6EE92AA1
:1002E000D8B4EA2AF5D70D0E9EA8FED7AD6E0A0E39
:1002F0009EA8FED7AD6E020EC26F186AF2BE188EAF
:10030000F29EFA0E0101006F0001D5DE18BEF28EDA
:10031000C22FF3D7B6EF03F0F66703D0F76702D02A
:1003200007D0F72BF5C0EEFFF62FFCD7F72FFAD743
:1003300029EF02F0C1C0EAFFC0C0E9FFFDC0EFFF36
:10034000E92AD8B4EA2AEF6AC02BD8B4C12B000C32
:10035000FE51016AFD5D03E2FDC000F00CD0006AB1
:10036000080EFF6FFD370036FE51005CD8B0006EFE
:100370000136FF2FF7D7000C200EF8A9300EF96FC9
:10038000F7C000F0F7AF07D0001E002A00C0F7F05A
:100390002D0EF96FF88F0150F7C0FDF0640EFE6F5F
:1003A000D7DF00C0F7F0300E0124FA6FF7C0FDF080
:1003B0000A0EFE6FCDDF300E0024FC6F300E0124DC
:1003C000FB6FF9C000F0F8A702D0F8AFF895F8B9C4
:1003D0000BD0F8AF22D0F8B520D000C0FAF0F8B3B7
:1003E0001CD000C0FBF019D0300EFA5D16E100C041
:1003F000FAF0200EF96FF8A704D0F895F883F8AF5B
:10040000F893300EFB5D09E100C0FBF0200EFA6F9F
:10041000F8A7F7D7F893F8AFF891F8A503D0F9C08B
:10042000FDF088DFF8A303D0FAC0FDF083DFF8A168
:1004300003D0FBC0FDF07EDFFCC0FDF07BDF46EFAC
:1004400002F0EA6AC30EE96EF56BF76B320EF66FD7
:1004500063D7C16BC30EC06FEA6A900EE96E000EDF
:10046000EF100FE0EACFF6F0E9CFF5F0EFCFFDF0B7
:1004700061DFF6C0EAFFF5C0E9FFE92AD8B4EA2A4D
:10048000EED7C2C0F7F0030EF86F76D70D0EFD6FF2
:1004900051DF0A0EFD6F4EDFEA6AC30EE96E000EF1
:1004A000EF1008E0EF509EA8FED7AD6EE92AD8B451
:1004B000EA2AF5D70D0E9EA8FED7AD6E0A0E9EA8AD
:1004C000FED7AD6E140EF56F186AF2BE188EF29E4E
:1004D000FA0E0101006F0001EEDD18BEF28EF52F5D
:1004E000F3D7B9EF03F0F86AD09E0D8EEA6AE96A95
:1004F000B886150EAF6E000EB06EA60EAC6E900EE6
:10050000AB6EC150C00B0F09C16E070EB46E410E29
:10051000196E540E1A6E2B0E1B6E430E1C6E570E68
:100520001D6E4D0E1E6E4F0E1F6E440E206E450E3C
:10053000216E3D0E226E310E236E0D0E246E0A0EBC
:10054000256E266A276A410E286E540E296E2B0EE0
:100550002A6E430E2B6E570E2C6E4A0E2D6E410ED8
:100560002E6E500E2F6E3D0E306E220E316E720EBC
:10057000326E336E346E356E220E366E2C0E376E42
:10058000220E386E730E396E3A6E3B6E3C6E220E42
:100590003D6E0D0E3E6E0A0E3F6E406A416A410E80
:1005A000426E540E436E2B0E446E430E456E490E42
:1005B000466E500E476E4D0E486E550E496E580EE3
:1005C0004A6E3D0E4B6E310E4C6E0D0E4D6E0A0E88
:1005D0004E6E4F6A506A410E516E540E526E2B0E83
:1005E000536E430E546E490E556E500E566E530E9A
:1005F000576E540E586E410E596E520E5A6E540E6E
:100600005B6E3D0E5C6E340E5D6E2C0E5E6E220EC9
:100610005F6E540E606E430E616E500E626E220E5F
:10062000636E2C0E646E220E656E310E666E380E91
:10063000676E340E686E2E0E696E310E6A6E300E65
:100640006B6E360E6C6E2E0E6D6E310E6E6E350E3E
:100650006F6E330E706E2E0E716E310E726E340E22
:10066000736E390E746E220E756E2C0E766E380E09
:10067000776E300E786E0D0E796E0A0E7A6E7B6A8A
:100680007C6A410E7D6E540E7E6E2B0E7F6E430E85
:10069000806F490E816F500E826F530E836F450E2F
:1006A000846F4E0E856F440E866F3D0E876F340E3D
:1006B000886F2C0E896F340E8A6F360E8B6F0D0E7D
:1006C0008C6F0A0E8D6F8E6B8F6B470E906F450E81
:1006D000916F540E926F200E936F2F0E946F750EC4
:1006E000956F700E966F640E976F610E986F740E13
:1006F000996F650E9A6F3F0E9B6F6B0E9C6F650E28
:100700009D6F790E9E6F3D0E9F6F6B0EA06FA16F58
:10071000A26FA36FA46FA56FA66FA76FA86FA96F35
:10072000AA6FAB6FAC6FAD6FAE6FAF6F260EB06FD1
:10073000660EB16F690EB26F650EB36F6C0EB46F5B
:10074000640EB56F310EB66F3D0EB76FB86BBF6BF1
:10075000C06BC16BBD6B00D5BC6BBB6BBE6B08D5F2
:100760000CD587D5BE2D08D089D5AFD5B9C0C2F07C
:0C07700068D6BC6BBB6BBE6BF5D70300FA
:020000040030CA
:0E00000000021E1E008381000FC00FE00F40A3
:00000001FF
;PIC18F4520
